{
  "contractName": "Election",
  "abi": [
    {
      "anonymous": false,
      "inputs": [
        {
          "indexed": true,
          "internalType": "address",
          "name": "accountAddress",
          "type": "address"
        },
        {
          "indexed": false,
          "internalType": "uint256",
          "name": "studentId",
          "type": "uint256"
        }
      ],
      "name": "addEvent",
      "type": "event"
    },
    {
      "inputs": [],
      "name": "count",
      "outputs": [
        {
          "internalType": "uint256",
          "name": "",
          "type": "uint256"
        }
      ],
      "stateMutability": "view",
      "type": "function",
      "constant": true
    },
    {
      "inputs": [
        {
          "internalType": "uint256",
          "name": "",
          "type": "uint256"
        },
        {
          "internalType": "uint256",
          "name": "",
          "type": "uint256"
        }
      ],
      "name": "idwise",
      "outputs": [
        {
          "internalType": "uint256",
          "name": "",
          "type": "uint256"
        }
      ],
      "stateMutability": "view",
      "type": "function",
      "constant": true
    },
    {
      "inputs": [],
      "name": "spacificId",
      "outputs": [
        {
          "internalType": "uint256",
          "name": "",
          "type": "uint256"
        }
      ],
      "stateMutability": "view",
      "type": "function",
      "constant": true
    },
    {
      "inputs": [
        {
          "internalType": "uint256",
          "name": "",
          "type": "uint256"
        }
      ],
      "name": "studnetDetails",
      "outputs": [
        {
          "internalType": "string",
          "name": "semester",
          "type": "string"
        },
        {
          "internalType": "string",
          "name": "course1",
          "type": "string"
        },
        {
          "internalType": "uint256",
          "name": "grade1",
          "type": "uint256"
        },
        {
          "internalType": "string",
          "name": "course2",
          "type": "string"
        },
        {
          "internalType": "uint256",
          "name": "grade2",
          "type": "uint256"
        },
        {
          "internalType": "string",
          "name": "course3",
          "type": "string"
        },
        {
          "internalType": "uint256",
          "name": "grade3",
          "type": "uint256"
        }
      ],
      "stateMutability": "view",
      "type": "function",
      "constant": true
    },
    {
      "inputs": [],
      "name": "totalcredit",
      "outputs": [
        {
          "internalType": "uint256",
          "name": "",
          "type": "uint256"
        }
      ],
      "stateMutability": "view",
      "type": "function",
      "constant": true
    },
    {
      "inputs": [],
      "name": "totalgpa",
      "outputs": [
        {
          "internalType": "uint256",
          "name": "",
          "type": "uint256"
        }
      ],
      "stateMutability": "view",
      "type": "function",
      "constant": true
    },
    {
      "inputs": [
        {
          "internalType": "uint256",
          "name": "studentId",
          "type": "uint256"
        },
        {
          "internalType": "string",
          "name": "s",
          "type": "string"
        },
        {
          "internalType": "string",
          "name": "c1",
          "type": "string"
        },
        {
          "internalType": "uint256",
          "name": "g1",
          "type": "uint256"
        },
        {
          "internalType": "string",
          "name": "c2",
          "type": "string"
        },
        {
          "internalType": "uint256",
          "name": "g2",
          "type": "uint256"
        },
        {
          "internalType": "string",
          "name": "c3",
          "type": "string"
        },
        {
          "internalType": "uint256",
          "name": "g3",
          "type": "uint256"
        }
      ],
      "name": "addSemesterDetail",
      "outputs": [],
      "stateMutability": "nonpayable",
      "type": "function"
    },
    {
      "inputs": [
        {
          "internalType": "uint256",
          "name": "id",
          "type": "uint256"
        }
      ],
      "name": "get",
      "outputs": [
        {
          "internalType": "uint256[]",
          "name": "",
          "type": "uint256[]"
        }
      ],
      "stateMutability": "view",
      "type": "function",
      "constant": true
    },
    {
      "inputs": [
        {
          "internalType": "uint256",
          "name": "id",
          "type": "uint256"
        }
      ],
      "name": "result",
      "outputs": [],
      "stateMutability": "nonpayable",
      "type": "function"
    }
  ],
  "bytecode": "0x608060405234801561001057600080fd5b50611144806100206000396000f3fe608060405234801561001057600080fd5b50600436106100935760003560e01c80636b390b39116100665780636b390b39146101385780639507d39a14610156578063b451a39e14610186578063c6f57ab9146101a4578063f0e93ffb146101c257610093565b806306661abd146100985780633c594059146100b65780633da08619146100d25780634eb11aa914610108575b600080fd5b6100a06101de565b6040516100ad91906107de565b60405180910390f35b6100d060048036038101906100cb9190610839565b6101e4565b005b6100ec60048036038101906100e79190610839565b610348565b6040516100ff97969594939291906108f6565b60405180910390f35b610122600480360381019061011d9190610981565b6105aa565b60405161012f91906107de565b60405180910390f35b6101406105db565b60405161014d91906107de565b60405180910390f35b610170600480360381019061016b9190610839565b6105e1565b60405161017d9190610a7f565b60405180910390f35b61018e61064c565b60405161019b91906107de565b60405180910390f35b6101ac610652565b6040516101b991906107de565b60405180910390f35b6101dc60048036038101906101d79190610bd6565b610658565b005b60035481565b806000819055506009600460008381526020019081526020016000208054905061020e9190610d2b565b6002819055506000805b600460008481526020019081526020016000208054905081101561033c576005600060046000868152602001908152602001600020838154811061025f5761025e610d85565b5b9060005260206000200154815260200190815260200160002060060154600560006004600087815260200190815260200160002084815481106102a5576102a4610d85565b5b9060005260206000200154815260200190815260200160002060040154600560006004600088815260200190815260200160002085815481106102eb576102ea610d85565b5b90600052602060002001548152602001908152602001600020600201546103129190610db4565b61031c9190610db4565b826103279190610db4565b9150808061033490610de8565b915050610218565b50806001819055505050565b600560205280600052604060002060009150905080600001805461036b90610e5f565b80601f016020809104026020016040519081016040528092919081815260200182805461039790610e5f565b80156103e45780601f106103b9576101008083540402835291602001916103e4565b820191906000526020600020905b8154815290600101906020018083116103c757829003601f168201915b5050505050908060010180546103f990610e5f565b80601f016020809104026020016040519081016040528092919081815260200182805461042590610e5f565b80156104725780601f1061044757610100808354040283529160200191610472565b820191906000526020600020905b81548152906001019060200180831161045557829003601f168201915b50505050509080600201549080600301805461048d90610e5f565b80601f01602080910402602001604051908101604052809291908181526020018280546104b990610e5f565b80156105065780601f106104db57610100808354040283529160200191610506565b820191906000526020600020905b8154815290600101906020018083116104e957829003601f168201915b50505050509080600401549080600501805461052190610e5f565b80601f016020809104026020016040519081016040528092919081815260200182805461054d90610e5f565b801561059a5780601f1061056f5761010080835404028352916020019161059a565b820191906000526020600020905b81548152906001019060200180831161057d57829003601f168201915b5050505050908060060154905087565b600460205281600052604060002081815481106105c657600080fd5b90600052602060002001600091509150505481565b60025481565b60606004600083815260200190815260200160002080548060200260200160405190810160405280929190818152602001828054801561064057602002820191906000526020600020905b81548152602001906001019080831161062c575b50505050509050919050565b60005481565b60015481565b6003600081548092919061066b90610de8565b91905055506040518060e001604052808881526020018781526020018681526020018581526020018481526020018381526020018281525060056000600354815260200190815260200160002060008201518160000190816106cd919061103c565b5060208201518160010190816106e3919061103c565b50604082015181600201556060820151816003019081610703919061103c565b506080820151816004015560a0820151816005019081610723919061103c565b5060c082015181600601559050506004600089815260200190815260200160002060035490806001815401808255809150506001900390600052602060002001600090919091909150553373ffffffffffffffffffffffffffffffffffffffff167fdb737147a8412358aa59d4fb68dde7c7aa6b2b63281b8b3d05a960725a9d1f47896040516107b391906107de565b60405180910390a25050505050505050565b6000819050919050565b6107d8816107c5565b82525050565b60006020820190506107f360008301846107cf565b92915050565b6000604051905090565b600080fd5b600080fd5b610816816107c5565b811461082157600080fd5b50565b6000813590506108338161080d565b92915050565b60006020828403121561084f5761084e610803565b5b600061085d84828501610824565b91505092915050565b600081519050919050565b600082825260208201905092915050565b60005b838110156108a0578082015181840152602081019050610885565b60008484015250505050565b6000601f19601f8301169050919050565b60006108c882610866565b6108d28185610871565b93506108e2818560208601610882565b6108eb816108ac565b840191505092915050565b600060e0820190508181036000830152610910818a6108bd565b9050818103602083015261092481896108bd565b905061093360408301886107cf565b818103606083015261094581876108bd565b905061095460808301866107cf565b81810360a083015261096681856108bd565b905061097560c08301846107cf565b98975050505050505050565b6000806040838503121561099857610997610803565b5b60006109a685828601610824565b92505060206109b785828601610824565b9150509250929050565b600081519050919050565b600082825260208201905092915050565b6000819050602082019050919050565b6109f6816107c5565b82525050565b6000610a0883836109ed565b60208301905092915050565b6000602082019050919050565b6000610a2c826109c1565b610a3681856109cc565b9350610a41836109dd565b8060005b83811015610a72578151610a5988826109fc565b9750610a6483610a14565b925050600181019050610a45565b5085935050505092915050565b60006020820190508181036000830152610a998184610a21565b905092915050565b600080fd5b600080fd5b7f4e487b7100000000000000000000000000000000000000000000000000000000600052604160045260246000fd5b610ae3826108ac565b810181811067ffffffffffffffff82111715610b0257610b01610aab565b5b80604052505050565b6000610b156107f9565b9050610b218282610ada565b919050565b600067ffffffffffffffff821115610b4157610b40610aab565b5b610b4a826108ac565b9050602081019050919050565b82818337600083830152505050565b6000610b79610b7484610b26565b610b0b565b905082815260208101848484011115610b9557610b94610aa6565b5b610ba0848285610b57565b509392505050565b600082601f830112610bbd57610bbc610aa1565b5b8135610bcd848260208601610b66565b91505092915050565b600080600080600080600080610100898b031215610bf757610bf6610803565b5b6000610c058b828c01610824565b985050602089013567ffffffffffffffff811115610c2657610c25610808565b5b610c328b828c01610ba8565b975050604089013567ffffffffffffffff811115610c5357610c52610808565b5b610c5f8b828c01610ba8565b9650506060610c708b828c01610824565b955050608089013567ffffffffffffffff811115610c9157610c90610808565b5b610c9d8b828c01610ba8565b94505060a0610cae8b828c01610824565b93505060c089013567ffffffffffffffff811115610ccf57610cce610808565b5b610cdb8b828c01610ba8565b92505060e0610cec8b828c01610824565b9150509295985092959890939650565b7f4e487b7100000000000000000000000000000000000000000000000000000000600052601160045260246000fd5b6000610d36826107c5565b9150610d41836107c5565b9250817fffffffffffffffffffffffffffffffffffffffffffffffffffffffffffffffff0483118215151615610d7a57610d79610cfc565b5b828202905092915050565b7f4e487b7100000000000000000000000000000000000000000000000000000000600052603260045260246000fd5b6000610dbf826107c5565b9150610dca836107c5565b9250828201905080821115610de257610de1610cfc565b5b92915050565b6000610df3826107c5565b91507fffffffffffffffffffffffffffffffffffffffffffffffffffffffffffffffff8203610e2557610e24610cfc565b5b600182019050919050565b7f4e487b7100000000000000000000000000000000000000000000000000000000600052602260045260246000fd5b60006002820490506001821680610e7757607f821691505b602082108103610e8a57610e89610e30565b5b50919050565b60008190508160005260206000209050919050565b60006020601f8301049050919050565b600082821b905092915050565b600060088302610ef27fffffffffffffffffffffffffffffffffffffffffffffffffffffffffffffffff82610eb5565b610efc8683610eb5565b95508019841693508086168417925050509392505050565b6000819050919050565b6000610f39610f34610f2f846107c5565b610f14565b6107c5565b9050919050565b6000819050919050565b610f5383610f1e565b610f67610f5f82610f40565b848454610ec2565b825550505050565b600090565b610f7c610f6f565b610f87818484610f4a565b505050565b5b81811015610fab57610fa0600082610f74565b600181019050610f8d565b5050565b601f821115610ff057610fc181610e90565b610fca84610ea5565b81016020851015610fd9578190505b610fed610fe585610ea5565b830182610f8c565b50505b505050565b600082821c905092915050565b600061101360001984600802610ff5565b1980831691505092915050565b600061102c8383611002565b9150826002028217905092915050565b61104582610866565b67ffffffffffffffff81111561105e5761105d610aab565b5b6110688254610e5f565b611073828285610faf565b600060209050601f8311600181146110a65760008415611094578287015190505b61109e8582611020565b865550611106565b601f1984166110b486610e90565b60005b828110156110dc578489015182556001820191506020850194506020810190506110b7565b868310156110f957848901516110f5601f891682611002565b8355505b6001600288020188555050505b50505050505056fea26469706673582212202a67bed61533cd6f7c9e33034c1a741203b0d8344a1ba309cfc033ba996841b364736f6c63430008100033",
  "immutableReferences": {},
  "source": "// SPDX-License-Identifier: GPL-3.0\npragma solidity >=0.7.0 <0.9.0;\n\ncontract Election {\n    event addEvent(address indexed accountAddress, uint256 studentId);\n\n    struct semesterDetail {\n        string semester;\n        string course1;\n        uint256 grade1;\n        string course2;\n        uint256 grade2;\n        string course3;\n        uint256 grade3;\n    }\n\n    uint256 public spacificId;\n    uint256 public totalgpa;\n    uint256 public totalcredit;\n    uint256 public count;\n\n    mapping(uint256 => uint256[]) public idwise;\n\n    mapping(uint256 => semesterDetail) public studnetDetails;\n\n    function addSemesterDetail(\n        uint256 studentId,\n        string memory s,\n        string memory c1,\n        uint256 g1,\n        string memory c2,\n        uint256 g2,\n        string memory c3,\n        uint256 g3\n    ) public {\n        count++;\n        studnetDetails[count] = semesterDetail(s, c1, g1, c2, g2, c3, g3);\n        idwise[studentId].push(count);\n        emit addEvent(msg.sender, studentId);\n    }\n\n    function get(uint256 id) public view returns (uint256[] memory) {\n        return idwise[id];\n    }\n\n    function result(uint256 id) public {\n        spacificId = id;\n        totalcredit = idwise[id].length * 9;\n\n        uint256 value = 0;\n\n        for (uint256 i = 0; i < idwise[id].length; i++) {\n            value +=\n                studnetDetails[idwise[id][i]].grade1 +\n                studnetDetails[idwise[id][i]].grade2 +\n                studnetDetails[idwise[id][i]].grade3;\n        }\n        totalgpa = value;\n    }\n}\n",
  "sourcePath": "/home/amimiraj/lab5/446_project/studentCourse/contracts/Election.sol",
  "compiler": {
    "name": "solc",
    "version": "0.8.16+commit.07a7930e.Emscripten.clang"
  },
  "schemaVersion": "3.4.11",
  "updatedAt": "2022-12-21T22:57:16.861Z",
  "networkType": "ethereum",
  "devdoc": {
    "kind": "dev",
    "methods": {},
    "version": 1
  },
  "userdoc": {
    "kind": "user",
    "methods": {},
    "version": 1
  }
}